:020000040800F2
:10000000A0040020450100084D0100084F01000830
:1000100051010008530100085501000800000000CC
:100020000000000000000000000000005701000870
:1000300059010008000000005B0100085D01000894
:100040005F0100085F0100085F0100085F01000810
:100050005F0100085F0100085F0100085F01000800
:100060005F0100085F0100085F0100085F010008F0
:100070005F0100085F0100085F0100085F010008E0
:100080005F0100085F0100085F0100085F010008D0
:100090005F0100085F0100085F0100085F010008C0
:1000A0005F0100085F0100085F0100085F010008B0
:1000B0005F0100085F0100085F0100085F010008A0
:1000C0005F0100085F0100085F0100085F01000890
:1000D0005F0100085F0100085F0100085F01000880
:1000E0005F0100085F0100085F0100085F01000870
:1000F0005F0100085F0100085F0100085F01000860
:100100005F0100085F0100085F0100085F0100084F
:100110005F0100085F0100085F0100085F0100083F
:100120005F0100085F0100085F0100085F0100082F
:10013000DFF80CD000F018FA004800470921000849
:10014000A00400200648804706480047FEE7FEE777
:10015000FEE7FEE7FEE7FEE7FEE7FEE7FEE7FEE777
:10016000650F00083101000830B50B46014600203C
:100170002022012409E021FA02F59D4205D303FA69
:1001800002F5491B04FA02F52844151EA2F10102EA
:10019000F1DC30BD2DE9F05F0546002092469B461C
:1001A00088460646814640241BE02846414647468D
:1001B000224600F0FAF953465A46C01A914110D32C
:1001C00011461846224600F0E1F92D1A67EB0108A6
:1001D0004F4622460120002100F0D8F917EB000914
:1001E0004E41201EA4F10104DFDC484631462A4678
:1001F0004346BDE8F09F2DE9FE4F804681EA0300AB
:10020000C00F0C46009021F0004123F00045B8EBF0
:100210000200A94105D24046214690461C460B46A5
:10022000024623F00040104347D0270DC7F30A00D1
:10023000C3F30A510290401A019040286BDAC3F3CD
:10024000130040F4801B0098924620B10023D2EBAB
:10025000030A63EB0B0B01985946C0F1400250466C
:1002600000F094F906460D4650465946019A00F0B2
:10027000ACF910EB08006141002487EA115284EACE
:10028000E7731A4340D0009A62B3019A012A4FEAF9
:10029000075215DC001B61EB02014FF0004202EA3D
:1002A0000752CDE90042001C41F5801132462B4631
:1002B00000F0ACF903B0BDE8F08F40462146F9E705
:1002C000001B61EB0201001C41F5801300185B412B
:1002D0002018A2F5001747EB030140EAD570B619C4
:1002E0006D4111E06D084FEA360645EAC0754FEAE8
:1002F0000752001B61EB0201001C41F58011490807
:100300004FEA30000019514132462B4603B0BDE898
:10031000F04F00F06CB90098012240000023D0EBB0
:10032000020263EBE073009821464FEAE074B8EBF9
:10033000000061EB0401E9E783F000435BE781F033
:10034000004158E72DE9FE4F81EA030404F0004420
:1003500021F0004100944FF0000B23F0004350EADD
:1003600001045ED052EA03045BD0C3F30A54C1F324
:100370000A552C44A4F2F3340194A0FB0254C1F3B7
:10038000130141F48011C3F3130343F4801301FB01
:10039000024400FB034E840A970A44EA815447EA68
:1003A0008357A4FB076802958D0A05FB07854FEA72
:1003B000932C04FB0C542705029D4FEA065847EA8C
:1003C0001637B5EB08056EEB070C870E920E47EA61
:1003D000811742EA8312A7FB0201B6EB0B0164EB23
:1003E00000042B0D43EA0C335E1844EB1C50DA4634
:1003F0005146E7FB0201C5F313044FEA0B3343EA0E
:1004000014534FEA0432019C43EA0603A4F10C049E
:100410000294009CCDE900B400F0F8F803B0BDE808
:10042000F08F00200146F9E72DE9F04D81EA030441
:1004300004F0004B21F0004514464FF0000A23F071
:10044000004150EA050220D054EA01021DD0C5F354
:100450000A570246C5F31303C1F31300C1F30A564A
:1004600040F4801543F48013A7EB0608101BD64612
:1004700008F2FD3873EB050002D308F1010801E032
:1004800092185B41B8F1000F03DA00200146BDE885
:10049000F08D00204FF48011064684460EE0171BB5
:1004A00073EB050705D3121B63EB050306434CEA08
:1004B000010C49084FEA300092185B4150EA0107ED
:1004C000EDD152EA030012D082EA040083EA05016A
:1004D000084305D0101BAB4106D20122002306E0E1
:1004E00000224FF0004302E06FF0010253101AEBBC
:1004F00006004CEB085110EB0A0041EB0B01BDE884
:10050000F04D00F074B8C1F30A52C1F3130140F288
:10051000FF3341F480119A4202DA0020014670470D
:1005200040F233439A42A2F2334202DC524200F0DC
:100530003CB800F02BB8000030B5041E71F1000487
:1005400004DB4FF00044404264EB0101141E73F1E0
:10055000000405DB1C464FF00043524263EB0403EA
:10056000994208BF904230BD064C074D06E0E06856
:1005700040F0010394E8070098471034AC42F6D3EA
:10058000FFF7DAFDA8210008C8210008202A04DBB3
:10059000203A00FA02F1002070479140C2F1200396
:1005A00020FA03F3194390407047202A04DB203AD5
:1005B00021FA02F00021704721FA02F3D040C2F183
:1005C00020029140084319467047202A06DBCB17CA
:1005D000203A41FA02F043EAE07306E041FA02F3FE
:1005E000D040C2F12002914008431946704710B52F
:1005F000141E73F1000408DA401C41F10001921846
:100600005B411A4301D120F0010010BD2DE9F04DEE
:1006100092469B4611B1B1FA81F202E0B0FA80F243
:1006200020329046FFF7B2FF04460F4640EA0A0028
:1006300041EA0B0153465A46084313D0114653EA88
:10064000010019D0C8F140025046FFF7AEFF054641
:100650000E46504659464246FFF798FF084305D0DC
:10066000012004E020463946BDE8F08D0020054316
:1006700046EAE0762C4337430A986305E40AA0EB88
:1006800008000022FD0A44EA47540A3002D500203F
:100690000146E9E7010510196941DDE9084500193E
:1006A0006941BDE8F04DA2E72DE9F0410246002581
:1006B0000026002000230024002791F803C00CF03E
:1006C0000F0591F803C00CF0100CBCF1000F03D023
:1006D00091F802C04CEA050591F800C0BCF1000F8A
:1006E00031D0146800202BE04FF0010C0CFA00F31D
:1006F000B1F800C00CEA03069E4220D183004FF0FF
:100700000F0C0CFA03F7BC4305FA03FC4CEA040493
:1007100091F803C0BCF1280F06D14FF0010C0CFA80
:1007200000FCC2F814C00AE091F803C0BCF1480F05
:1007300005D14FF0010C0CFA00FCC2F810C0401CAF
:100740000828D1D31460B1F800C0BCF1FF0F34DD2C
:10075000546800202EE000F1080C4FF0010808FA60
:100760000CF3B1F800C00CEA03069E4221D18300CD
:100770004FF00F0C0CFA03F7BC4305FA03FC4CEAEC
:10078000040491F803C0BCF1280F05D100F1080C56
:1007900008FA0CF8C2F8148091F803C0BCF1480FB5
:1007A00007D100F1080C4FF0010808FA0CF8C2F864
:1007B0001080401C0828CED35460BDE8F081016150
:1007C0007047000070B50446002504F0700400F086
:1007D0008DF805460A48006820F0080008490860BE
:1007E000272001F069FB44EA050001F065FB04489D
:1007F000006840F008000249086000F077F870BD1A
:100800000C08014008B50121042000F0F1F9102086
:100810008DF8030001208DF802001020ADF80000D3
:1008200069461348FFF740FF10211148FFF7C7FF43
:1008300048208DF8030001208DF802000420ADF857
:10084000000069460A48FFF72FFF04210848FFF718
:10085000B6FF07480C30006820F0100004490C3146
:1008600008600846006840F00800086008BD000005
:10087000000801402DE9F04104460E4617460D4898
:10088000006820F008000B490860204601F014FBC6
:10089000002505E0FF2001F00FFB7055681CC5B274
:1008A000BD42F7DB0348006840F0080001490860DA
:1008B000BDE8F0810C08014070B504460A480068A4
:1008C00020F0080008490860204601F0F5FAFF20F2
:1008D00001F0F2FA05460448006840F008000249B9
:1008E0000860284670BD00000C08014010B509489A
:1008F000006820F0080007490860072001F0DCFAD2
:1009000004460448006840F0080002490860204698
:1009100010BD00000C08014070B504460E46154697
:10092000052D01DD052000E028460546052C01DDEA
:10093000052000E02046044604F10A01C8B22A4618
:10094000314600F0C3F870BD70B505460C46052C65
:1009500001DD052000E020460446224629461020FD
:1009600000F0B4F870BD00002DE9F04105460E46D8
:10097000002400273148006820F008002F49086053
:10098000E12001F099FA2D48006840F008002B4959
:1009900008600846006820F01000086032462946CA
:1009A000A02000F093F82548006840F0100023498B
:1009B000086010E0322001F0A3F93846791C8FB2AC
:1009C000B0F5FA7F07D1FFF71DFF00F09BF900207B
:1009D00000F0E0F909E01948001F006800F0040089
:1009E000002181EA90000028E4D100BF0720FFF732
:1009F00063FF04462146072000F08AF83B46324652
:100A000021460FA001F0D0FA04F0100048B116A062
:100A100001F0CAFAFF21E12000F07AF81020BDE8C9
:100A2000F08104F0200020B118A001F0BDFA2020D0
:100A3000F5E71FA001F0B8FAFF20F0E70C0801402D
:100A40005B54585D205374617475733D3078253064
:100A50003258204C656E3D25642054696D653D25F6
:100A6000646D730D0A0000005B54585F4552525D7F
:100A7000204D41585F5254202D204E6F2041434B52
:100A80002072656365697665640D0A005B54585F82
:100A90004F4B5D205061636B65742073656E7420ED
:100AA0007375636365737366756C6C790D0A00000A
:100AB0005B54585F4552525D20556E6B6E6F776E7A
:100AC000206572726F720D0A000000002DE9F0417E
:100AD00005460E4617460D48006820F008000B49F1
:100AE000086045F0200001F0E7F9002404E0305DE3
:100AF00001F0E2F9601CC4B2BC42F8DB03480068B4
:100B000040F0080001490860BDE8F0810C08014090
:100B100070B504460D460A48006820F008000849F0
:100B2000086044F0200001F0C7F9284601F0C4F93C
:100B30000348006840F008000149086070BD0000EB
:100B40000C0801401FB517A103C9CDE9020100201F
:100B50000090019022E0052202A91020FFF7B6FFC5
:100B6000052269461020FFF785FE002408E002A850
:100B7000005D1DF80410884200D003E0601CC4B280
:100B8000052CF4DB00BF052C00D108E01A21074832
:100B9000006801F0A1FA042001F01BF8DBE700BFB8
:100BA0001FBD0000A5A5A5A5A500000014000020FC
:100BB00029B1064AD2690243044BDA6104E0034AD0
:100BC000D2698243014BDA61704700000010024095
:100BD00029B1064A12690243044B1A6104E0034A30
:100BE00012698243014B1A617047000000100240F5
:100BF00029B1064A92690243044B9A6104E0034A10
:100C000092698243014B9A617047000000100240D4
:100C100029B1064AD2680243044BDA6004E0034A71
:100C2000D2688243014BDA60704700000010024036
:100C300030B500210022002400232D4D6D6805F001
:100C40000C0121B1042905D0082923D105E0294D43
:100C5000056022E0274D05601FE0254D6D6805F415
:100C60007012234D6D6805F48034022505EB924225
:100C70001CB9214D554305600BE01D4D6D6805F411
:100C800000351DB11C4D5543056002E0194D55431B
:100C9000056002E0174D056000BF00BF144D6D6890
:100CA00005F0F0010909154D6B5C0568DD404560F4
:100CB0000F4D6D6805F4E061090A104D6B5C4568E5
:100CC000DD4085600A4D6D6805F46051C90A0B4D21
:100CD0006B5C4568DD40C560054D6D6805F44041BD
:100CE000890B074D6B5CC568B5FBF3F5056130BD3D
:100CF0000010024000127A0000093D0000000020B0
:100D0000100000201CB520A103C9CDE90001204836
:100D1000006840F010001E4908607020FFF752FD87
:100D200001211C20FFF7F4FE07211D20FFF7F0FE34
:100D30001C20FFF7C1FD1D20FFF7BEFD0A2100208A
:100D4000FFF7E6FE01210846FFF7E2FE012102203F
:100D5000FFF7DEFE03210846FFF7DAFE1521042027
:100D6000FFF7D6FE3C210520FFF7D2FE2621062004
:100D7000FFF7CEFE05216846FFF7E6FD052269462E
:100D80000020FFF7C9FD1CBD344310100100000016
:100D90000C08014070B5044600250020FFF78CFDCB
:100DA000054614B925F0010503E0012C01D145F0F9
:100DB000010529460020FFF7ABFE70BD21B1028876
:100DC00042F04002028004E002884FF6BF731A40EE
:100DD0000280704710B504461148844208D10121B1
:100DE0008014FFF715FF0021A014FFF711FF16E094
:100DF0000C48844208D101210014FFF7E9FE0021CC
:100E00002014FFF7E5FE0AE00748844207D10121DC
:100E1000C013FFF7DDFE0021E013FFF7D9FE10BD80
:100E20000030014000380040003C004002460020F5
:100E300013890B400BB1012000E00020704710B572
:100E40000022028802F441520B884C8823438C888C
:100E50002343CC8823430C8923434C8923438C8927
:100E60002343CC8923431A430280838B4FF2FF74C0
:100E7000234083830B8A038210BD10B500F002F873
:100E800010BD00000CB500200190009033480068B0
:100E900040F480303149086000BF3048006800F4F9
:100EA000003000900198401C0190009818B90198FA
:100EB000B0F5A06FF1D12948006800F4003010B1FE
:100EC0000120009001E0002000900098012843D10B
:100ED0002348006840F01000214908600846006877
:100EE00020F0030008600846006840F00200086037
:100EF0001A484068194948600846406848600846F2
:100F0000406840F4806048600846406820F47C10E7
:100F100048600846406840F4E810486008460068A9
:100F200040F08070086000BF0C48006800F000705E
:100F30000028F9D00948406820F0030007494860BC
:100F40000846406840F00200486000BF034840681F
:100F500000F00C000828F9D10CBD00000010024080
:100F60000020024010B51348006840F0010011490C
:100F7000086008464068104908400E494860084625
:100F800000680E4908400B4908600846006820F4D4
:100F9000802008600846406820F4FE0048604FF456
:100FA0001F008860FFF769FF4FF000600449086088
:100FB00010BD0000001002400000FFF8FFFFF6FE29
:100FC00008ED00E0CA430282704721B1028842F076
:100FD0000102028004E002884FF6FE731A4002808C
:100FE000704702460020138A0B400BB1012000E03D
:100FF0000020704781847047002202881D4B984270
:101000000ED01D4B98420BD0B0F1804F08D01B4B37
:10101000984205D01A4B984202D01A4B984204D1FC
:101020004FF68F731A404B881A43174B984207D0DC
:10103000164B984204D04FF6FF431A40CB881A4310
:1010400002808B8883850B8803850A4B98420BD0DE
:10105000094B984208D00E4B984205D00D4B984250
:1010600002D00D4B984201D10B7A03860123838273
:1010700070470000002C0140003401400004004093
:1010800000080040000C0040001000400014004028
:1010900000400140004401400048014021B18289E4
:1010A00042F40052828104E082894DF6FF731A40B7
:1010B0008281704710B504462048844209D101213D
:1010C0008803FFF7A5FD00214FF48040FFF7A0FD46
:1010D00032E01B48844209D101214804FFF778FD22
:1010E00000214FF40030FFF773FD25E015488442DE
:1010F00009D101218804FFF76BFD00214FF4802006
:10110000FFF766FD18E01048844209D10121C804A8
:10111000FFF75EFD00214FF40020FFF759FD0BE0C3
:101120000A48844208D101210805FFF751FD00213A
:101130004FF48010FFF74CFD10BD00000038014057
:101140000044004000480040004C00400050004077
:1011500002460020B1F5007F00D100BF13880B408C
:101160000BB1012000E00020704700002DE9F0479E
:1011700086B005460E460024A24600BFA1460027C1
:10118000B08900B100BF2F462C8A4CF6FF70044096
:10119000F08804432C82AC894EF6F3100440B088EA
:1011A00031890843718908430443AC81AC8A4FF606
:1011B000FF400440B0890443AC8201A8FFF738FD2A
:1011C0001F48874202D1DDF810A001E0DDF80CA035
:1011D000A88900F4004040B10AEBCA0000EB0A10F5
:1011E00031684900B0FBF1F807E00AEBCA0000EBF8
:1011F0000A1031688900B0FBF1F86420B8FBF0F008
:1012000004012009642101FB1089A88900F4004031
:1012100040B1322000EBC900B0FBF1F000F0070054
:10122000044308E0322000EB09106421B0FBF1F028
:1012300000F00F0004432C8106B0BDE8F0870000E9
:10124000003801407CB5044600201D4616460029A2
:101250000BD0491ECDE90041044B6A462946304671
:1012600000F0D8F8009A002111707CBD431B0008E3
:1012700002E008C8121F08C1002AFAD1704770475F
:10128000002001E001C1121F002AFBD170470000BD
:101290002DE9FF5F82B00021DDE90430020DDDF8A9
:1012A00040B0034318D044F61050A2F2FF3242433C
:1012B0001514119801281FD0A5EB0B00401C5FEA04
:1012C000000A4FF000064E4FDFF83891B046504606
:1012D00015D5CAF1000413E0119801244AA301288E
:1012E00001D16FEA0B010298119AC0E90031C0E9FF
:1012F000024206B0BDE8F09FCBF10000DFE70446F4
:101300000021404A491842EB0450CDE9001012E098
:10131000E00707D032463B4640464946FFF712F801
:101320008046894632463B4610461946FFF70AF882
:1013300006460F466410002CEAD1DDE90401DDE920
:101340000023BAF1000F06DAFEF7FCFF42464B46D7
:10135000FEF7F8FF05E0FFF767F842464B46FFF758
:1013600063F804460E460022284BFFF7E5F803D841
:101370004FF0FF30014607E00022254B2046314662
:10138000FEF739FFFFF7BFF8102409E0002C0ADB55
:101390000A220023FEF7FEFE039B30321A55641E1C
:1013A00050EA0102F2D1641C039AC4F111031444FF
:1013B000119A012A03D0012208430DD10AE0084303
:1013C00004D000204FF0110B119072E7A3EB0B0536
:1013D0006D1E0DE05B4504DD4FF0000205F10105D7
:1013E00004E003DA4FF00002A5F10105002AECD079
:1013F00002981199C0E90231C0E9004579E700007F
:10140000000014400000F03F300000000000F043F6
:101410000000E03F2DE9FF4F95B09B468946064608
:1014200000250FE2252877D100242746F84A01211C
:10143000059400E0044316F8013F203B01FA03F055
:101440001042F7D130782A2811D06FF02F0330786E
:10145000A0F13002092A16D8059A44F0020402EBE2
:10146000820203EB42021044761C0590EFE759F824
:10147000042B0592002A03DA504244F400540590EC
:1014800044F00204761C30782E2816D116F8010F8D
:1014900044F004042A280DD06FF02F023078A0F118
:1014A0003003092B09D807EB870302EB4303C71866
:1014B000761CF3E759F8047B761C30786C280FD043
:1014C00006DC4C2817D068280DD06A2814D104E017
:1014D000742810D07A280FD10DE044F400140AE0EB
:1014E00044F4801401E044F440147278824202D142
:1014F00004F58014761C761C307866280BD013DC3B
:10150000582877D009DC002875D04528F6D0462821
:10151000F4D047281AD19DE118E0632835D064281B
:1015200079D0652812D195E1702873D008DC67283E
:10153000F1D069286FD06E280DD06F2806D1B5E0A4
:1015400073282CD0752875D0782874D05A461799EE
:1015500090476D1C75E1C4F30250022809D003289E
:101560000DD0D9F8001004280DD00D6009F1040940
:1015700067E1D9F80010EA17C1E90052F6E7D9F897
:1015800000100D80F2E70D70F0E719F8041B8DF8DC
:10159000001000208DF80100EA46012003E059F810
:1015A00004AB4FF0FF3061074FF0000102D40DE0B3
:1015B00008F101018846B9420FDA8045F8DB1AF8D4
:1015C00008100029F4D108E008F1010188468142A1
:1015D000FADB1AF808100029F6D105985B46A0EB53
:1015E000080721463846179A00F094FA284400EB81
:1015F000080507E04DE029E10DE01AF8010B5A4615
:1016000017999047B8F10108F7D25B462146384652
:10161000179A13E142E00A220092C4F302524FF0FB
:10162000000A022A08D059F804CB032A4FEAEC71C9
:101630000AD00DE029E02AE009F1070121F00702B4
:10164000F2E802C1914609E00FFA8CFC4FEAEC7116
:10165000042A03D14FFA8CFC4FEAEC71002907DA17
:101660000A460021DCF1000C61EB02012D2202E0B0
:10167000220504D52B228DF80420012203E0E20785
:1016800001D02022F7E7904659E00A2102E010221B
:101690000DE010214FF0000A00910BE010224FF0F6
:1016A000000A44F004040827009203E008224FF0E7
:1016B000000A0092C4F30252022A05D059F804CB62
:1016C0000021032A08D009E009F1070121F00702EF
:1016D000F2E802C1914605E01FFA8CFC042A01D110
:1016E0000CF0FF0C4FF00008220728D5702806D018
:1016F000009B83F0100353EA0A0305D00EE040225A
:101700008DF80420012208E05CEA010206D03022B4
:101710008DF804208DF8050002229046009B83F08E
:10172000080353EA0A030AD15CEA010201D1620705
:1017300005D530228DF804204FF001087F1E58286F
:1017400004D034A003900EA802900DE036A0F9E773
:1017500053466046009AFEF71DFD84460398825C5E
:101760000298401E029002705CEA0100F0D10298DB
:1017700006A9081A00F1200A600702D524F4803473
:1017800000E00127574502DDA7EB0A0000E000203A
:1017900000EB0A01009005984144401A0590E003CF
:1017A00006D45B462146179A059800F0B3F9054424
:1017B000002706E001A85A46C05D179990476D1CA6
:1017C0007F1C4745F6DBE0030CD55B462146179AA4
:1017D000059800F09FF9054404E030205A46179917
:1017E00090476D1C0099481E00900029F5DC08E028
:1017F000029802995A460078491C0291179990471D
:101800006D1CBAF10001AAF1010AF1DC65E10000EA
:1018100009280100303132333435363738396162C6
:10182000636465660000000030313233343536378A
:1018300038394142434445460000000000F058F961
:101840000544761C307800287FF4ECAD19B02846AA
:10185000BDE8F08F620700D4062709F1070222F0E5
:10186000070CFCE80223E14603F000485FEA080C9D
:1018700002D00FF2702C0DE05FEA045C02D50FF28B
:10188000682C07E05FEAC47C02D00FF2602C01E014
:10189000AFF2700C4FF0FF3823F00043CDF850C08A
:1018A00065280CD006DC452809D046281DD04728DD
:1018B0003DD13DE0662818D067287ED138E0002170
:1018C000112F01DB112000E0781CCDE9000106A9F1
:1018D0000EA8FFF7DDFCDDE90F010E9A0391002150
:1018E000009207F1010A04914DE04FF0004000978B
:1018F000CDE9011006A90EA8FFF7CAFCDDE90F0229
:1019000003920E9B11990022DDF80CA00093049223
:1019100011B9791C00EB010AB7EB0A0004D4C0F13D
:10192000FF3007F1010A0490AAEB0700019044E0A0
:10193000012F00DA01270021112F01DD112000E025
:101940003846CDE9000106A90EA8FFF7A1FCDDE9A4
:101950000F010E9A0391002104910092BA462107CB
:101960000CD40399514500DA8A46BAF1010F05DD1E
:10197000009AAAF10101515C302908D0B84202DA7C
:1019800010F1040F06DA0121CDE9011015E0AAF1EA
:101990000101E9E7002805DC049901440491AAEB60
:1019A000000102E0411C514500DD8A460499401ABD
:1019B000401C01904FF000400290200704D4019891
:1019C000504501DBCDF8048000208DF84F000298CF
:1019D0000DF14F07B0F1004F25D02B200E9002984B
:1019E0004FF0020800280CDA404202902D200E90A1
:1019F00007E00A210298FEF7B7FB3031029007F8A2
:101A0000011DB8F10001A8F10108F2DC02980028DC
:101A1000EFD1791E0E980870307800F0200040F069
:101A2000450007F8020D12A8C01B00F10708149822
:101A3000007800B1012000EB0A01019801EBE07190
:101A400005984144401A401E0590E00306D45B46C9
:101A50002146179A059800F05DF80544149800781F
:101A600018B15A46179990476D1CE00324D55B4680
:101A70002146179A059800F04DF805441CE004989B
:101A8000002807DBDDE90301884203DD0098405CA4
:101A9000179901E0179930205A469047049805F1AC
:101AA0000105401C04900198401E019004D12E2095
:101AB0005A46179990476D1CBAF10001AAF1010A24
:101AC000DDDC05E017F8010B5A46179990476D1CAD
:101AD000B8F10001A8F10108F4DC5B462146179A31
:101AE0000598ABE62D0000002B0000002000000050
:101AF0002DE9F041044600251E461746880404D40B
:101B000005E039462020B0476D1C641EF9D52846F3
:101B1000BDE8F0812DE9F041044600251E469046BF
:101B2000C80301D5302700E02027880404D505E04C
:101B300041463846B0476D1C641EF9D52846BDE8BD
:101B4000F0814A68002A06D00A68531C0B601070A6
:101B50004868401E4860704708B501214020FFF7E3
:101B600047F848208DF8030002208DF8020010206D
:101B7000ADF8000069460248FEF796FD08BD00007A
:101B80000018014000B5034605E0322000F090F84F
:101B9000322000F08DF8181EA3F10101CBB2F4D170
:101BA00000BD00B503460EE0322000F081F832207F
:101BB00000F07EF8322000F07BF8322000F078F858
:101BC000322000F075F8181EA3F10101CBB2EBD161
:101BD00000BD00B503461DE0322000F069F8322058
:101BE00000F066F8322000F063F8322000F060F870
:101BF000322000F05DF8322000F05AF8322000F078
:101C000057F8322000F054F8322000F051F832201A
:101C100000F04EF8181EA3F10101CBB2DCD100BDDB
:101C200000B589B001A8FFF703F801210846FEF7C7
:101C3000BFFF0020ADF81E00ADF81A00FF20ADF880
:101C40001C0000208DF8200018490398B0FBF1F02B
:101C5000401E80B2ADF8180006A94FF08040FFF793
:101C6000CBF901218807FFF7ADF900214FF0804043
:101C7000FFF7C0F901218807FFF7A7F900BF01218D
:101C80008807FFF7AEF90028F9D000214FF0804017
:101C9000FFF79BF900214FF08040FFF7ABF90121DE
:101CA0008807FFF78FF909B000BD000040420F0020
:101CB00000EB4001C1EBC0114FF6FF7202EAC10117
:101CC0004FF080429185002191841146098841F0AE
:101CD0000101118000BF4FF08041098A01F001012C
:101CE0000029F8D04FF08041098A21F001014FF01E
:101CF000804211821146098821F00101118070474C
:101D00004FF08041888500214FF080429184114638
:101D1000098841F00101118000BF4FF08041098A1C
:101D200001F001010029F8D04FF08041098A21F02B
:101D300001014FF0804211821146098821F0010112
:101D40001180704710B5044694B90120FFF71AFFBF
:101D50001148C06880F400500F49C8600120FFF7A7
:101D600011FF0D48C06880F400500B49C86011E0B5
:101D70000120FFF716FF0848C06880F400500649AC
:101D8000C8600120FFF70DFF0348C06880F40050D1
:101D90000149C86010BD00000010014008B50121D4
:101DA0001020FEF725FF10208DF8030002208DF88B
:101DB00002000003ADF8000069460448FEF774FC19
:101DC0004FF400510148FEF7FAFC08BD0010014035
:101DD00010B54FF400510248FEF7F1FC10BD0000B1
:101DE0000010014000B587B001210C20FEF700FF74
:101DF00001208DF81A0018208DF81B004FF40050B8
:101E0000ADF8180006A92948FEF74EFC4FF4004033
:101E1000ADF8180006A92548FEF746FC04208DF809
:101E20001B000003ADF8180006A92048FEF73CFC93
:101E300010208DF81B000820ADF8180006A91C48DA
:101E4000FEF732FC08211A48FEF7B9FC1948FEF7E4
:101E5000C1FF01218803FEF7ABFE00211548FEF704
:101E6000ADFF0020ADF804004FF48270ADF806001D
:101E70000020ADF80A00ADF80C00ADF808004FF4F2
:101E80000070ADF80E001020ADF810000020ADF885
:101E900012000720ADF8140001A90648FEF7CFFF95
:101EA00001210448FEF78AFF07B000BD000C014085
:101EB000000801400038004070B5044600260025A7
:101EC00007E0681C80B205464FF6FF71884200D1DA
:101ED00005E002211048FEF7A9FF0028F1D000BF5D
:101EE00047F6FF750C480C30048007E0681C80B290
:101EF00005464FF6FF71884200D105E001210648F2
:101F0000FEF794FF0028F1D000BF03480C30008892
:101F1000C6B2304670BD00000038004010B586B033
:101F2000044601210820FEF763FE18208DF81700F3
:101F300002208DF816004002ADF8140005A91848DB
:101F4000FEF7B2FB04208DF817004002ADF8140034
:101F500005A91348FEF7A8FB1248FFF7ABF80121CB
:101F60008804FEF725FE01940020ADF810000C2037
:101F7000ADF80E000020ADF80C00ADF80A00ADF889
:101F8000080000210748FFF789F801A90548FFF775
:101F9000EDF801210348FFF781F806B010BD0000FD
:101FA000000C0140004800400FB410B5C2B045A875
:101FB00001904FF4807102A8019B449AFFF742F907
:101FC000044600200190002C03DDE1B202A800F0DD
:101FD00005F842B010BC5DF814FB000070B5044673
:101FE0000D460BE000BF80210748FFF7B1F800283D
:101FF000F9D020780449091D0880641C281EA5F129
:102000000101CDB2EED170BD0048004010B586B0E0
:10201000044601210420FEF7EBFD18208DF817007F
:1020200002208DF816000002ADF8140005A918482A
:10203000FEF73AFB04208DF817000002ADF81400FB
:1020400005A91348FEF730FB1248FFF733F80121CA
:102050008803FEF7CDFD01940020ADF810000C20A0
:10206000ADF80E000020ADF80C00ADF80A00ADF898
:10207000080000210748FFF711F801A90548FFF7FC
:1020800075F801210348FFF709F806B010BD0000FC
:10209000000801400038014070B5044600250C4E90
:1020A0000FE020210B48FFF753F838B10948001D15
:1020B00000882070641C681CC5B2054E642D00D1D8
:1020C00003E0301EA6F10106EBD100BF284670BD2B
:1020D000FFFF7F000038014070B504460D460BE05D
:1020E00000BF80210748FFF733F80028F9D0207897
:1020F0000449091D0880641C281EA5F10101CDB208
:10210000EED170BD0038014000244FF4E130FFF7FC
:102110007DFF4FF4E130FFF701FFFFF781FDFFF78F
:102120003DFEFFF75FFEFEF76DFBFEF70BFDFEF7D2
:10213000E9FDFFF74DFE00BF07E00020FFF702FEBC
:102140000120FFF746FD601CC4B2062CF5DB0BA096
:10215000FFF72AFFFFF700FD0020FEF71BFE0BE054
:102160000948FFF799FF044634B121460648FEF7B7
:10217000FBFB0020FFF7E6FDF2E700005478206D3E
:102180006F6465212121000018000020524632347E
:102190004C3031206973206E6F742066696E642044
:1021A000212E2E2E00000000C82100080000002073
:1021B0001800000070120008E0210008180000203C
:1021C00088040000801200080000000001020304DF
:1021D0000102030406070809020406088C2100080E
:0400000508000131BD
:00000001FF
